{
  "_format": "hh-sol-artifact-1",
  "contractName": "Escrow",
  "sourceName": "contracts/Escrow.sol",
  "abi": [
    {
      "inputs": [
        {
          "internalType": "address",
          "name": "_arbiter",
          "type": "address"
        },
        {
          "internalType": "address",
          "name": "_beneficiary",
          "type": "address"
        }
      ],
      "stateMutability": "payable",
      "type": "constructor"
    },
    {
      "anonymous": false,
      "inputs": [
        {
          "indexed": false,
          "internalType": "uint256",
          "name": "balance",
          "type": "uint256"
        }
      ],
      "name": "Approved",
      "type": "event"
    },
    {
      "inputs": [],
      "name": "approve",
      "outputs": [],
      "stateMutability": "nonpayable",
      "type": "function"
    },
    {
      "inputs": [],
      "name": "arbiter",
      "outputs": [
        {
          "internalType": "address",
          "name": "",
          "type": "address"
        }
      ],
      "stateMutability": "view",
      "type": "function"
    },
    {
      "inputs": [],
      "name": "beneficiary",
      "outputs": [
        {
          "internalType": "address",
          "name": "",
          "type": "address"
        }
      ],
      "stateMutability": "view",
      "type": "function"
    },
    {
      "inputs": [],
      "name": "depositor",
      "outputs": [
        {
          "internalType": "address",
          "name": "",
          "type": "address"
        }
      ],
      "stateMutability": "view",
      "type": "function"
    },
    {
      "inputs": [],
      "name": "isApproved",
      "outputs": [
        {
          "internalType": "bool",
          "name": "",
          "type": "bool"
        }
      ],
      "stateMutability": "view",
      "type": "function"
    }
  ],
  "bytecode": "0x608060405260405161051138038061051183398181016040528101906100259190610103565b81600260006101000a81548173ffffffffffffffffffffffffffffffffffffffff021916908373ffffffffffffffffffffffffffffffffffffffff16021790555080600160006101000a81548173ffffffffffffffffffffffffffffffffffffffff021916908373ffffffffffffffffffffffffffffffffffffffff160217905550336000806101000a81548173ffffffffffffffffffffffffffffffffffffffff021916908373ffffffffffffffffffffffffffffffffffffffff1602179055505050610188565b6000815190506100fd81610171565b92915050565b6000806040838503121561011657600080fd5b6000610124858286016100ee565b9250506020610135858286016100ee565b9150509250929050565b600061014a82610151565b9050919050565b600073ffffffffffffffffffffffffffffffffffffffff82169050919050565b61017a8161013f565b811461018557600080fd5b50565b61037a806101976000396000f3fe608060405234801561001057600080fd5b50600436106100575760003560e01c806312424e3f1461005c57806328f371aa1461006657806338af3eed14610084578063c7c4ff46146100a2578063fe25e00a146100c0575b600080fd5b6100646100de565b005b61006e6101fb565b60405161007b91906102c6565b60405180910390f35b61008c61020e565b60405161009991906102ab565b60405180910390f35b6100aa610234565b6040516100b791906102ab565b60405180910390f35b6100c8610258565b6040516100d591906102ab565b60405180910390f35b3373ffffffffffffffffffffffffffffffffffffffff16600260009054906101000a900473ffffffffffffffffffffffffffffffffffffffff1673ffffffffffffffffffffffffffffffffffffffff161461013857600080fd5b6000479050600160009054906101000a900473ffffffffffffffffffffffffffffffffffffffff1673ffffffffffffffffffffffffffffffffffffffff166108fc479081150290604051600060405180830381858888f193505050501580156101a5573d6000803e3d6000fd5b506001600260146101000a81548160ff0219169083151502179055507f3ad93af63cb7967b23e4fb500b7d7d28b07516325dcf341f88bebf959d82c1cb816040516101f091906102e1565b60405180910390a150565b600260149054906101000a900460ff1681565b600160009054906101000a900473ffffffffffffffffffffffffffffffffffffffff1681565b60008054906101000a900473ffffffffffffffffffffffffffffffffffffffff1681565b600260009054906101000a900473ffffffffffffffffffffffffffffffffffffffff1681565b610287816102fc565b82525050565b6102968161030e565b82525050565b6102a58161033a565b82525050565b60006020820190506102c0600083018461027e565b92915050565b60006020820190506102db600083018461028d565b92915050565b60006020820190506102f6600083018461029c565b92915050565b60006103078261031a565b9050919050565b60008115159050919050565b600073ffffffffffffffffffffffffffffffffffffffff82169050919050565b600081905091905056fea2646970667358221220eafe6e24e8e8a5d4c7916abd34975b2d6bb79e1c3504a96dc013676e2101506c64736f6c63430008040033",
  "linkReferences": {},
  "deployedLinkReferences": {}
}